{
  "contractName": "StateChannel",
  "abi": [
    {
      "inputs": [
        {
          "internalType": "address payable",
          "name": "bob",
          "type": "address"
        }
      ],
      "stateMutability": "payable",
      "type": "constructor"
    },
    {
      "inputs": [],
      "name": "Alice",
      "outputs": [
        {
          "internalType": "address payable",
          "name": "",
          "type": "address"
        }
      ],
      "stateMutability": "view",
      "type": "function"
    },
    {
      "inputs": [],
      "name": "AliceBalance",
      "outputs": [
        {
          "internalType": "int256",
          "name": "",
          "type": "int256"
        }
      ],
      "stateMutability": "view",
      "type": "function"
    },
    {
      "inputs": [],
      "name": "Bob",
      "outputs": [
        {
          "internalType": "address payable",
          "name": "",
          "type": "address"
        }
      ],
      "stateMutability": "view",
      "type": "function"
    },
    {
      "inputs": [],
      "name": "BobBalance",
      "outputs": [
        {
          "internalType": "int256",
          "name": "",
          "type": "int256"
        }
      ],
      "stateMutability": "view",
      "type": "function"
    },
    {
      "inputs": [],
      "name": "deadline",
      "outputs": [
        {
          "internalType": "uint256",
          "name": "",
          "type": "uint256"
        }
      ],
      "stateMutability": "view",
      "type": "function"
    },
    {
      "inputs": [],
      "name": "nonce",
      "outputs": [
        {
          "internalType": "uint256",
          "name": "",
          "type": "uint256"
        }
      ],
      "stateMutability": "view",
      "type": "function"
    },
    {
      "inputs": [],
      "name": "tentativeBalanceDelta",
      "outputs": [
        {
          "internalType": "int256",
          "name": "",
          "type": "int256"
        }
      ],
      "stateMutability": "view",
      "type": "function"
    },
    {
      "inputs": [],
      "name": "deposit",
      "outputs": [],
      "stateMutability": "payable",
      "type": "function"
    },
    {
      "inputs": [],
      "name": "withdrawWithoutSignature",
      "outputs": [],
      "stateMutability": "nonpayable",
      "type": "function"
    },
    {
      "inputs": [
        {
          "components": [
            {
              "internalType": "bytes32",
              "name": "r",
              "type": "bytes32"
            },
            {
              "internalType": "bytes32",
              "name": "s",
              "type": "bytes32"
            },
            {
              "internalType": "uint8",
              "name": "v",
              "type": "uint8"
            }
          ],
          "internalType": "struct StateChannel.Signature",
          "name": "sig",
          "type": "tuple"
        },
        {
          "components": [
            {
              "internalType": "uint256",
              "name": "nonce",
              "type": "uint256"
            },
            {
              "internalType": "int256",
              "name": "balanceDelta",
              "type": "int256"
            }
          ],
          "internalType": "struct StateChannel.OffChainLedger",
          "name": "L",
          "type": "tuple"
        }
      ],
      "name": "startWithdrawal",
      "outputs": [],
      "stateMutability": "nonpayable",
      "type": "function"
    },
    {
      "inputs": [],
      "name": "completeWithdrawal",
      "outputs": [],
      "stateMutability": "nonpayable",
      "type": "function"
    }
  ],
  "bytecode": "0x60e0604052601e60c090815250604051610864380380610864833981810160405281019061002d9190610105565b3373ffffffffffffffffffffffffffffffffffffffff1660808173ffffffffffffffffffffffffffffffffffffffff1681525050346000819055508073ffffffffffffffffffffffffffffffffffffffff1660a08173ffffffffffffffffffffffffffffffffffffffff168152505050610132565b600080fd5b600073ffffffffffffffffffffffffffffffffffffffff82169050919050565b60006100d2826100a7565b9050919050565b6100e2816100c7565b81146100ed57600080fd5b50565b6000815190506100ff816100d9565b92915050565b60006020828403121561011b5761011a6100a2565b5b6000610129848285016100f0565b91505092915050565b60805160a05160c0516106f561016f600039600061035901526000818161028501526103ab01526000818161023001526103cf01526106f56000f3fe60806040526004361061009b5760003560e01c80636d877f91116100645780636d877f91146101615780639877bdff1461018c578063affed0e0146101b7578063d0e30db0146101e2578063d2ee6431146101ec578063e03ff7cb146102175761009b565b80627832c1146100a05780631d149bc4146100b757806329dcb0cf146100e0578063317404831461010b578063497c31b814610136575b600080fd5b3480156100ac57600080fd5b506100b561022e565b005b3480156100c357600080fd5b506100de60048036038101906100d99190610449565b610393565b005b3480156100ec57600080fd5b506100f5610397565b60405161010291906104a2565b60405180910390f35b34801561011757600080fd5b5061012061039d565b60405161012d91906104d6565b60405180910390f35b34801561014257600080fd5b5061014b6103a3565b60405161015891906104d6565b60405180910390f35b34801561016d57600080fd5b506101766103a9565b6040516101839190610532565b60405180910390f35b34801561019857600080fd5b506101a16103cd565b6040516101ae9190610532565b60405180910390f35b3480156101c357600080fd5b506101cc6103f1565b6040516101d991906104a2565b60405180910390f35b6101ea6103f7565b005b3480156101f857600080fd5b506102016103f9565b60405161020e91906104d6565b60405180910390f35b34801561022357600080fd5b5061022c6103ff565b005b7f000000000000000000000000000000000000000000000000000000000000000073ffffffffffffffffffffffffffffffffffffffff163373ffffffffffffffffffffffffffffffffffffffff1614806102d357507f000000000000000000000000000000000000000000000000000000000000000073ffffffffffffffffffffffffffffffffffffffff163373ffffffffffffffffffffffffffffffffffffffff16145b610312576040517f08c379a0000000000000000000000000000000000000000000000000000000008152600401610309906105aa565b60405180910390fd5b600060045414610357576040517f08c379a000000000000000000000000000000000000000000000000000000000815260040161034e9061063c565b60405180910390fd5b7f000000000000000000000000000000000000000000000000000000000000000042610383919061068b565b6004819055506000600381905550565b5050565b60045481565b60015481565b60035481565b7f000000000000000000000000000000000000000000000000000000000000000081565b7f000000000000000000000000000000000000000000000000000000000000000081565b60025481565b565b60005481565b565b600080fd5b600080fd5b60006060828403121561042157610420610406565b5b81905092915050565b6000604082840312156104405761043f610406565b5b81905092915050565b60008060a083850312156104605761045f610401565b5b600061046e8582860161040b565b925050606061047f8582860161042a565b9150509250929050565b6000819050919050565b61049c81610489565b82525050565b60006020820190506104b76000830184610493565b92915050565b6000819050919050565b6104d0816104bd565b82525050565b60006020820190506104eb60008301846104c7565b92915050565b600073ffffffffffffffffffffffffffffffffffffffff82169050919050565b600061051c826104f1565b9050919050565b61052c81610511565b82525050565b60006020820190506105476000830184610523565b92915050565b600082825260208201905092915050565b7f4e6f20446f5320706c7300000000000000000000000000000000000000000000600082015250565b6000610594600a8361054d565b915061059f8261055e565b602082019050919050565b600060208201905081810360008301526105c381610587565b9050919050565b7f41207769746864726177616c20697320616c726561647920696e2070726f677260008201527f6573732100000000000000000000000000000000000000000000000000000000602082015250565b600061062660248361054d565b9150610631826105ca565b604082019050919050565b6000602082019050818103600083015261065581610619565b9050919050565b7f4e487b7100000000000000000000000000000000000000000000000000000000600052601160045260246000fd5b600061069682610489565b91506106a183610489565b92508282019050808211156106b9576106b861065c565b5b9291505056fea2646970667358221220071024641f95ee493b76bb5640f403a9c46d09cb7366a49fb7d831af1348fa7964736f6c63430008110033",
  "immutableReferences": {
    "15": [
      {
        "length": 32,
        "start": 560
      },
      {
        "length": 32,
        "start": 975
      }
    ],
    "17": [
      {
        "length": 32,
        "start": 645
      },
      {
        "length": 32,
        "start": 939
      }
    ],
    "24": [
      {
        "length": 32,
        "start": 857
      }
    ]
  },
  "source": "// SPDX-License-Identifier: MIT\npragma solidity >=0.4.22 <0.9.0;\n\n/*\nA skeleton for a simple off-chain payment channel implemented in Solidity.\nThere are many optimizations that could be applied to this contract to reduce\nexecution cost further, but this isn't a program optimization course; the point\nis to illustrate the principle of off-chain scaling.\n*/\ncontract StateChannel {\n    struct OffChainLedger {\n\tuint nonce;\n\t//Amount owed by Alice to Bob. Note this is a signed number!\n\tint balanceDelta;\n    }\n    struct Signature {\n\tbytes32 r;\n\tbytes32 s;\n\tuint8 v;\n    }\n    \n    \n    address payable immutable public Alice;\n    address payable immutable public Bob;\n    int public AliceBalance;\n    int public BobBalance;\n    //How long time parties have to contest withdrawals, in seconds.\n    //For debugging, a short period of time is convenient; for real use, a\n    //longer one is required for security.\n    uint immutable WARNING_PERIOD = 30;  \n\n    //The nonce of the off-chain ledger uploaded for withdrawal.\n    //If a withdrawal without signature is done before any signed withdrawal\n    //has been performed, nonce will be 0.\n    uint public nonce;\n    //The amount that will be transferred from Alice to Bob if withdrawal\n    //completes. Note it may be negative.\n    int public tentativeBalanceDelta;\n    //The last time that the withdrawal attempt can be appealed.\n    //ETH time is UNIX time in seconds\n    //(i.e. seconds since January 1, 1970 00:00:00 UTC)\n    //A zero deadline indicates no withdrawal attempt is in progress.\n    uint public deadline;\n\n    //Helper functions\n    //Returns the public key of the private key used to sign the message.\n    function recover(Signature calldata sig, bytes32 message) internal pure\n\treturns (address) {\n\treturn ecrecover(message, sig.v, sig.r, sig.s);\n    }\n\n    //Verifies a signature of an off-chain ledger; returns the address\n    //(public key) of the signatory.\n    function verifySignature(Signature calldata sig, OffChainLedger calldata ol)\n\tinternal pure returns (address) {\n\tbytes32 hash = keccak256(abi.encode(ol.nonce,ol.balanceDelta));\n        return recover(sig,hash);\n    }\n    function counterparty() internal view returns (address) {\n\tif(msg.sender == Alice) return Bob;\n\tif(msg.sender == Bob) return Alice;\n\trevert(\"Only Alice or Bob may interact with this channel!\");\n    }\n\t\t\t     \n    \n    //Creates a new state channel\n    constructor(address payable bob) payable {\n\tAlice = payable(msg.sender);\n\tAliceBalance = int(msg.value);\n\tBob = bob;\n    }\n    //Deposits money to either Alice or Bob.\n    function deposit() public payable {\n\t//Your code goes here\n    }\n\n    //This eliminates the need for the parties to exchange ledgers with\n    //delta=0 when the payment channel is established or withdrawn from before\n    //they can safely deposit to it.\n    function withdrawWithoutSignature() public {\n\trequire(msg.sender == Alice || msg.sender == Bob,\"No DoS pls\");\n\trequire(deadline == 0,\"A withdrawal is already in progress!\");\n\tdeadline = block.timestamp + WARNING_PERIOD;\n\ttentativeBalanceDelta = 0;\n    }\n\n    //Given a signed off-chain ledger state, attempts to upload it.\n    //If it's newer than the last uploaded state (i.e. its nonce is higher),\n    //it should start a withdrawal attempt.\n    //Within WARNING_PERIOD seconds, the state should become final.\n    function startWithdrawal(Signature calldata sig,\n\t\t\t     OffChainLedger calldata L) public {\n\t//Your code goes here\n    }\n    //Sends the entire balance of the state channel to Alice and Bob;\n    //one could support withdrawing only part of the funds but I don't for now.\n    //If nonce is currently N, the next valid nonce to use in a signed\n    //message is N+1.\n    function completeWithdrawal() public {\n\t//Your code goes here\n    }\n}\n",
  "sourcePath": "/home/elias/code/TDA352/off-chain-payment-channel/contracts/StateChannel.sol",
  "compiler": {
    "name": "solc",
    "version": "0.8.17+commit.8df45f5f.Emscripten.clang"
  },
  "schemaVersion": "3.4.10",
  "updatedAt": "2022-11-08T23:07:09.358Z",
  "devdoc": {
    "kind": "dev",
    "methods": {},
    "version": 1
  },
  "userdoc": {
    "kind": "user",
    "methods": {},
    "version": 1
  }
}